{
  "contractName": "RewardToken",
  "abi": [
    {
      "inputs": [],
      "stateMutability": "nonpayable",
      "type": "constructor"
    },
    {
      "anonymous": false,
      "inputs": [
        {
          "indexed": true,
          "internalType": "address",
          "name": "owner",
          "type": "address"
        },
        {
          "indexed": true,
          "internalType": "address",
          "name": "spender",
          "type": "address"
        },
        {
          "indexed": false,
          "internalType": "uint256",
          "name": "value",
          "type": "uint256"
        }
      ],
      "name": "Approval",
      "type": "event"
    },
    {
      "anonymous": false,
      "inputs": [
        {
          "indexed": true,
          "internalType": "address",
          "name": "from",
          "type": "address"
        },
        {
          "indexed": true,
          "internalType": "address",
          "name": "to",
          "type": "address"
        },
        {
          "indexed": false,
          "internalType": "uint256",
          "name": "value",
          "type": "uint256"
        }
      ],
      "name": "Transfer",
      "type": "event"
    },
    {
      "inputs": [
        {
          "internalType": "address",
          "name": "owner",
          "type": "address"
        },
        {
          "internalType": "address",
          "name": "spender",
          "type": "address"
        }
      ],
      "name": "allowance",
      "outputs": [
        {
          "internalType": "uint256",
          "name": "",
          "type": "uint256"
        }
      ],
      "stateMutability": "view",
      "type": "function",
      "constant": true
    },
    {
      "inputs": [
        {
          "internalType": "address",
          "name": "spender",
          "type": "address"
        },
        {
          "internalType": "uint256",
          "name": "amount",
          "type": "uint256"
        }
      ],
      "name": "approve",
      "outputs": [
        {
          "internalType": "bool",
          "name": "",
          "type": "bool"
        }
      ],
      "stateMutability": "nonpayable",
      "type": "function"
    },
    {
      "inputs": [
        {
          "internalType": "address",
          "name": "account",
          "type": "address"
        }
      ],
      "name": "balanceOf",
      "outputs": [
        {
          "internalType": "uint256",
          "name": "",
          "type": "uint256"
        }
      ],
      "stateMutability": "view",
      "type": "function",
      "constant": true
    },
    {
      "inputs": [],
      "name": "contractOwner",
      "outputs": [
        {
          "internalType": "address",
          "name": "",
          "type": "address"
        }
      ],
      "stateMutability": "view",
      "type": "function",
      "constant": true
    },
    {
      "inputs": [],
      "name": "decimals",
      "outputs": [
        {
          "internalType": "uint8",
          "name": "",
          "type": "uint8"
        }
      ],
      "stateMutability": "view",
      "type": "function",
      "constant": true
    },
    {
      "inputs": [
        {
          "internalType": "address",
          "name": "spender",
          "type": "address"
        },
        {
          "internalType": "uint256",
          "name": "subtractedValue",
          "type": "uint256"
        }
      ],
      "name": "decreaseAllowance",
      "outputs": [
        {
          "internalType": "bool",
          "name": "",
          "type": "bool"
        }
      ],
      "stateMutability": "nonpayable",
      "type": "function"
    },
    {
      "inputs": [
        {
          "internalType": "address",
          "name": "spender",
          "type": "address"
        },
        {
          "internalType": "uint256",
          "name": "addedValue",
          "type": "uint256"
        }
      ],
      "name": "increaseAllowance",
      "outputs": [
        {
          "internalType": "bool",
          "name": "",
          "type": "bool"
        }
      ],
      "stateMutability": "nonpayable",
      "type": "function"
    },
    {
      "inputs": [],
      "name": "name",
      "outputs": [
        {
          "internalType": "string",
          "name": "",
          "type": "string"
        }
      ],
      "stateMutability": "view",
      "type": "function",
      "constant": true
    },
    {
      "inputs": [],
      "name": "rewardAmount",
      "outputs": [
        {
          "internalType": "uint256",
          "name": "",
          "type": "uint256"
        }
      ],
      "stateMutability": "view",
      "type": "function",
      "constant": true
    },
    {
      "inputs": [],
      "name": "symbol",
      "outputs": [
        {
          "internalType": "string",
          "name": "",
          "type": "string"
        }
      ],
      "stateMutability": "view",
      "type": "function",
      "constant": true
    },
    {
      "inputs": [],
      "name": "totalSupply",
      "outputs": [
        {
          "internalType": "uint256",
          "name": "",
          "type": "uint256"
        }
      ],
      "stateMutability": "view",
      "type": "function",
      "constant": true
    },
    {
      "inputs": [
        {
          "internalType": "address",
          "name": "from",
          "type": "address"
        },
        {
          "internalType": "address",
          "name": "to",
          "type": "address"
        },
        {
          "internalType": "uint256",
          "name": "amount",
          "type": "uint256"
        }
      ],
      "name": "transferFrom",
      "outputs": [
        {
          "internalType": "bool",
          "name": "",
          "type": "bool"
        }
      ],
      "stateMutability": "nonpayable",
      "type": "function"
    },
    {
      "inputs": [
        {
          "internalType": "address",
          "name": "recipient",
          "type": "address"
        },
        {
          "internalType": "uint256",
          "name": "amount",
          "type": "uint256"
        }
      ],
      "name": "transfer",
      "outputs": [
        {
          "internalType": "bool",
          "name": "",
          "type": "bool"
        }
      ],
      "stateMutability": "nonpayable",
      "type": "function"
    }
  ],
  "bytecode": "0x60806040523480156200001157600080fd5b506040518060400160405280600b81526020017f526577617264546f6b656e0000000000000000000000000000000000000000008152506040518060400160405280600681526020017f5265546f6b65000000000000000000000000000000000000000000000000000081525081600390816200008f919062000554565b508060049081620000a1919062000554565b50505033600560006101000a81548173ffffffffffffffffffffffffffffffffffffffff021916908373ffffffffffffffffffffffffffffffffffffffff16021790555060006a108b2a2c280290940000009050600069d3c21bcecceda1000000905069021e19e0c9bab24000006006819055506200012730836200016360201b60201c565b6200015b600560009054906101000a900473ffffffffffffffffffffffffffffffffffffffff16826200016360201b60201c565b505062000756565b600073ffffffffffffffffffffffffffffffffffffffff168273ffffffffffffffffffffffffffffffffffffffff1603620001d5576040517f08c379a0000000000000000000000000000000000000000000000000000000008152600401620001cc906200069c565b60405180910390fd5b620001e960008383620002d060201b60201c565b8060026000828254620001fd9190620006ed565b92505081905550806000808473ffffffffffffffffffffffffffffffffffffffff1673ffffffffffffffffffffffffffffffffffffffff168152602001908152602001600020600082825401925050819055508173ffffffffffffffffffffffffffffffffffffffff16600073ffffffffffffffffffffffffffffffffffffffff167fddf252ad1be2c89b69c2b068fc378daa952ba7f163c4a11628f55a4df523b3ef83604051620002b0919062000739565b60405180910390a3620002cc60008383620002d560201b60201c565b5050565b505050565b505050565b600081519050919050565b7f4e487b7100000000000000000000000000000000000000000000000000000000600052604160045260246000fd5b7f4e487b7100000000000000000000000000000000000000000000000000000000600052602260045260246000fd5b600060028204905060018216806200035c57607f821691505b60208210810362000372576200037162000314565b5b50919050565b60008190508160005260206000209050919050565b60006020601f8301049050919050565b600082821b905092915050565b600060088302620003dc7fffffffffffffffffffffffffffffffffffffffffffffffffffffffffffffffff826200039d565b620003e886836200039d565b95508019841693508086168417925050509392505050565b6000819050919050565b6000819050919050565b6000620004356200042f620004298462000400565b6200040a565b62000400565b9050919050565b6000819050919050565b620004518362000414565b6200046962000460826200043c565b848454620003aa565b825550505050565b600090565b6200048062000471565b6200048d81848462000446565b505050565b5b81811015620004b557620004a960008262000476565b60018101905062000493565b5050565b601f8211156200050457620004ce8162000378565b620004d9846200038d565b81016020851015620004e9578190505b62000501620004f8856200038d565b83018262000492565b50505b505050565b600082821c905092915050565b6000620005296000198460080262000509565b1980831691505092915050565b600062000544838362000516565b9150826002028217905092915050565b6200055f82620002da565b67ffffffffffffffff8111156200057b576200057a620002e5565b5b62000587825462000343565b62000594828285620004b9565b600060209050601f831160018114620005cc5760008415620005b7578287015190505b620005c3858262000536565b86555062000633565b601f198416620005dc8662000378565b60005b828110156200060657848901518255600182019150602085019450602081019050620005df565b8683101562000626578489015162000622601f89168262000516565b8355505b6001600288020188555050505b505050505050565b600082825260208201905092915050565b7f45524332303a206d696e7420746f20746865207a65726f206164647265737300600082015250565b600062000684601f836200063b565b915062000691826200064c565b602082019050919050565b60006020820190508181036000830152620006b78162000675565b9050919050565b7f4e487b7100000000000000000000000000000000000000000000000000000000600052601160045260246000fd5b6000620006fa8262000400565b9150620007078362000400565b9250828201905080821115620007225762000721620006be565b5b92915050565b620007338162000400565b82525050565b600060208201905062000750600083018462000728565b92915050565b61163980620007666000396000f3fe608060405234801561001057600080fd5b50600436106100cf5760003560e01c806370a082311161008c578063a9059cbb11610066578063a9059cbb1461023c578063ce606ee01461026c578063dd62ed3e1461028a578063f7b2a7be146102ba576100cf565b806370a08231146101be57806395d89b41146101ee578063a457c2d71461020c576100cf565b806306fdde03146100d4578063095ea7b3146100f257806318160ddd1461012257806323b872dd14610140578063313ce56714610170578063395093511461018e575b600080fd5b6100dc6102d8565b6040516100e99190610d8e565b60405180910390f35b61010c60048036038101906101079190610e49565b61036a565b6040516101199190610ea4565b60405180910390f35b61012a61038d565b6040516101379190610ece565b60405180910390f35b61015a60048036038101906101559190610ee9565b610397565b6040516101679190610ea4565b60405180910390f35b6101786103c6565b6040516101859190610f58565b60405180910390f35b6101a860048036038101906101a39190610e49565b6103cf565b6040516101b59190610ea4565b60405180910390f35b6101d860048036038101906101d39190610f73565b610406565b6040516101e59190610ece565b60405180910390f35b6101f661044e565b6040516102039190610d8e565b60405180910390f35b61022660048036038101906102219190610e49565b6104e0565b6040516102339190610ea4565b60405180910390f35b61025660048036038101906102519190610e49565b610557565b6040516102639190610ea4565b60405180910390f35b61027461076e565b6040516102819190610faf565b60405180910390f35b6102a4600480360381019061029f9190610fca565b610794565b6040516102b19190610ece565b60405180910390f35b6102c261081b565b6040516102cf9190610ece565b60405180910390f35b6060600380546102e790611039565b80601f016020809104026020016040519081016040528092919081815260200182805461031390611039565b80156103605780601f1061033557610100808354040283529160200191610360565b820191906000526020600020905b81548152906001019060200180831161034357829003601f168201915b5050505050905090565b600080610375610821565b9050610382818585610829565b600191505092915050565b6000600254905090565b6000806103a2610821565b90506103af8582856109f2565b6103ba858585610a7e565b60019150509392505050565b60006012905090565b6000806103da610821565b90506103fb8185856103ec8589610794565b6103f69190611099565b610829565b600191505092915050565b60008060008373ffffffffffffffffffffffffffffffffffffffff1673ffffffffffffffffffffffffffffffffffffffff168152602001908152602001600020549050919050565b60606004805461045d90611039565b80601f016020809104026020016040519081016040528092919081815260200182805461048990611039565b80156104d65780601f106104ab576101008083540402835291602001916104d6565b820191906000526020600020905b8154815290600101906020018083116104b957829003601f168201915b5050505050905090565b6000806104eb610821565b905060006104f98286610794565b90508381101561053e576040517f08c379a00000000000000000000000000000000000000000000000000000000081526004016105359061113f565b60405180910390fd5b61054b8286868403610829565b60019250505092915050565b60008161056333610406565b10156105a4576040517f08c379a000000000000000000000000000000000000000000000000000000000815260040161059b906111ab565b60405180910390fd5b6105af338484610a7e565b600560009054906101000a900473ffffffffffffffffffffffffffffffffffffffff1673ffffffffffffffffffffffffffffffffffffffff163373ffffffffffffffffffffffffffffffffffffffff161461076457600061060f30610406565b9050600061061b61038d565b90506000670de0b6b3a76400009050600a8261063791906111fa565b83116106495767016345785d8a000090505b60648261065691906111fa565b831161066757662386f26fc1000090505b6103e88261067591906111fa565b83116106865766038d7ea4c6800090505b6127108261069491906111fa565b83116106a457655af3107a400090505b620186a0826106b391906111fa565b83116106c3576509184e72a00090505b620f4240826106d291906111fa565b83116106e15764e8d4a5100090505b62989680826106f091906111fa565b83116106ff5764746a52880090505b8060068190555060065461071230610406565b1015610753576040517f08c379a000000000000000000000000000000000000000000000000000000000815260040161074a9061129d565b60405180910390fd5b6107603033600654610a7e565b5050505b6001905092915050565b600560009054906101000a900473ffffffffffffffffffffffffffffffffffffffff1681565b6000600160008473ffffffffffffffffffffffffffffffffffffffff1673ffffffffffffffffffffffffffffffffffffffff16815260200190815260200160002060008373ffffffffffffffffffffffffffffffffffffffff1673ffffffffffffffffffffffffffffffffffffffff16815260200190815260200160002054905092915050565b60065481565b600033905090565b600073ffffffffffffffffffffffffffffffffffffffff168373ffffffffffffffffffffffffffffffffffffffff1603610898576040517f08c379a000000000000000000000000000000000000000000000000000000000815260040161088f9061132f565b60405180910390fd5b600073ffffffffffffffffffffffffffffffffffffffff168273ffffffffffffffffffffffffffffffffffffffff1603610907576040517f08c379a00000000000000000000000000000000000000000000000000000000081526004016108fe906113c1565b60405180910390fd5b80600160008573ffffffffffffffffffffffffffffffffffffffff1673ffffffffffffffffffffffffffffffffffffffff16815260200190815260200160002060008473ffffffffffffffffffffffffffffffffffffffff1673ffffffffffffffffffffffffffffffffffffffff168152602001908152602001600020819055508173ffffffffffffffffffffffffffffffffffffffff168373ffffffffffffffffffffffffffffffffffffffff167f8c5be1e5ebec7d5bd14f71427d1e84f3dd0314c0f7b2291e5b200ac8c7c3b925836040516109e59190610ece565b60405180910390a3505050565b60006109fe8484610794565b90507fffffffffffffffffffffffffffffffffffffffffffffffffffffffffffffffff8114610a785781811015610a6a576040517f08c379a0000000000000000000000000000000000000000000000000000000008152600401610a619061142d565b60405180910390fd5b610a778484848403610829565b5b50505050565b600073ffffffffffffffffffffffffffffffffffffffff168373ffffffffffffffffffffffffffffffffffffffff1603610aed576040517f08c379a0000000000000000000000000000000000000000000000000000000008152600401610ae4906114bf565b60405180910390fd5b600073ffffffffffffffffffffffffffffffffffffffff168273ffffffffffffffffffffffffffffffffffffffff1603610b5c576040517f08c379a0000000000000000000000000000000000000000000000000000000008152600401610b5390611551565b60405180910390fd5b610b67838383610cf4565b60008060008573ffffffffffffffffffffffffffffffffffffffff1673ffffffffffffffffffffffffffffffffffffffff16815260200190815260200160002054905081811015610bed576040517f08c379a0000000000000000000000000000000000000000000000000000000008152600401610be4906115e3565b60405180910390fd5b8181036000808673ffffffffffffffffffffffffffffffffffffffff1673ffffffffffffffffffffffffffffffffffffffff16815260200190815260200160002081905550816000808573ffffffffffffffffffffffffffffffffffffffff1673ffffffffffffffffffffffffffffffffffffffff168152602001908152602001600020600082825401925050819055508273ffffffffffffffffffffffffffffffffffffffff168473ffffffffffffffffffffffffffffffffffffffff167fddf252ad1be2c89b69c2b068fc378daa952ba7f163c4a11628f55a4df523b3ef84604051610cdb9190610ece565b60405180910390a3610cee848484610cf9565b50505050565b505050565b505050565b600081519050919050565b600082825260208201905092915050565b60005b83811015610d38578082015181840152602081019050610d1d565b60008484015250505050565b6000601f19601f8301169050919050565b6000610d6082610cfe565b610d6a8185610d09565b9350610d7a818560208601610d1a565b610d8381610d44565b840191505092915050565b60006020820190508181036000830152610da88184610d55565b905092915050565b600080fd5b600073ffffffffffffffffffffffffffffffffffffffff82169050919050565b6000610de082610db5565b9050919050565b610df081610dd5565b8114610dfb57600080fd5b50565b600081359050610e0d81610de7565b92915050565b6000819050919050565b610e2681610e13565b8114610e3157600080fd5b50565b600081359050610e4381610e1d565b92915050565b60008060408385031215610e6057610e5f610db0565b5b6000610e6e85828601610dfe565b9250506020610e7f85828601610e34565b9150509250929050565b60008115159050919050565b610e9e81610e89565b82525050565b6000602082019050610eb96000830184610e95565b92915050565b610ec881610e13565b82525050565b6000602082019050610ee36000830184610ebf565b92915050565b600080600060608486031215610f0257610f01610db0565b5b6000610f1086828701610dfe565b9350506020610f2186828701610dfe565b9250506040610f3286828701610e34565b9150509250925092565b600060ff82169050919050565b610f5281610f3c565b82525050565b6000602082019050610f6d6000830184610f49565b92915050565b600060208284031215610f8957610f88610db0565b5b6000610f9784828501610dfe565b91505092915050565b610fa981610dd5565b82525050565b6000602082019050610fc46000830184610fa0565b92915050565b60008060408385031215610fe157610fe0610db0565b5b6000610fef85828601610dfe565b925050602061100085828601610dfe565b9150509250929050565b7f4e487b7100000000000000000000000000000000000000000000000000000000600052602260045260246000fd5b6000600282049050600182168061105157607f821691505b6020821081036110645761106361100a565b5b50919050565b7f4e487b7100000000000000000000000000000000000000000000000000000000600052601160045260246000fd5b60006110a482610e13565b91506110af83610e13565b92508282019050808211156110c7576110c661106a565b5b92915050565b7f45524332303a2064656372656173656420616c6c6f77616e63652062656c6f7760008201527f207a65726f000000000000000000000000000000000000000000000000000000602082015250565b6000611129602583610d09565b9150611134826110cd565b604082019050919050565b600060208201905081810360008301526111588161111c565b9050919050565b7f4e6f7420656e6f75676820746f6b656e7320746f207472616e73666572000000600082015250565b6000611195601d83610d09565b91506111a08261115f565b602082019050919050565b600060208201905081810360008301526111c481611188565b9050919050565b7f4e487b7100000000000000000000000000000000000000000000000000000000600052601260045260246000fd5b600061120582610e13565b915061121083610e13565b9250826112205761121f6111cb565b5b828204905092915050565b7f4e6f7420656e6f75676820746f6b656e73206c65667420666f7220726577617260008201527f6400000000000000000000000000000000000000000000000000000000000000602082015250565b6000611287602183610d09565b91506112928261122b565b604082019050919050565b600060208201905081810360008301526112b68161127a565b9050919050565b7f45524332303a20617070726f76652066726f6d20746865207a65726f2061646460008201527f7265737300000000000000000000000000000000000000000000000000000000602082015250565b6000611319602483610d09565b9150611324826112bd565b604082019050919050565b600060208201905081810360008301526113488161130c565b9050919050565b7f45524332303a20617070726f766520746f20746865207a65726f20616464726560008201527f7373000000000000000000000000000000000000000000000000000000000000602082015250565b60006113ab602283610d09565b91506113b68261134f565b604082019050919050565b600060208201905081810360008301526113da8161139e565b9050919050565b7f45524332303a20696e73756666696369656e7420616c6c6f77616e6365000000600082015250565b6000611417601d83610d09565b9150611422826113e1565b602082019050919050565b600060208201905081810360008301526114468161140a565b9050919050565b7f45524332303a207472616e736665722066726f6d20746865207a65726f20616460008201527f6472657373000000000000000000000000000000000000000000000000000000602082015250565b60006114a9602583610d09565b91506114b48261144d565b604082019050919050565b600060208201905081810360008301526114d88161149c565b9050919050565b7f45524332303a207472616e7366657220746f20746865207a65726f206164647260008201527f6573730000000000000000000000000000000000000000000000000000000000602082015250565b600061153b602383610d09565b9150611546826114df565b604082019050919050565b6000602082019050818103600083015261156a8161152e565b9050919050565b7f45524332303a207472616e7366657220616d6f756e742065786365656473206260008201527f616c616e63650000000000000000000000000000000000000000000000000000602082015250565b60006115cd602683610d09565b91506115d882611571565b604082019050919050565b600060208201905081810360008301526115fc816115c0565b905091905056fea2646970667358221220b9317b61bf57d2374ad301161e3679dd2a4b02378e74404aaaf33e09b2ab880364736f6c63430008130033",
  "immutableReferences": {},
  "source": "// SPDX-License-Identifier: MIT\npragma solidity ^0.8.0;\n\nimport \"@openzeppelin/contracts/token/ERC20/ERC20.sol\";\n\ncontract RewardToken is ERC20 {\n    address public contractOwner;\n    uint256 public rewardAmount;\n\n    constructor() ERC20(\"RewardToken\", \"ReToke\") {\n        contractOwner = msg.sender;\n        uint256 preMintAmount = 20000000 * 10**18;  // Pre-mint 20 million tokens for rewards\n        uint256 initialOwnerAmount = 1000000 * 10**18; // Mint 1 million tokens to owner\n        rewardAmount = 10000 * 10**18;  // Set initial reward amount to 10000 tokens per transaction\n        _mint(address(this), preMintAmount); // Pre-mint reward tokens and store them in the contract\n        _mint(contractOwner, initialOwnerAmount); // Mint tokens for the owner\n    }\n\n    function transfer(address recipient, uint256 amount) public override returns (bool) {\n        require(balanceOf(msg.sender) >= amount, \"Not enough tokens to transfer\");\n        _transfer(msg.sender, recipient, amount);\n\n        if (msg.sender != contractOwner) {\n            // Calculate the new reward amount based on the current supply\n            uint256 currentSupply = balanceOf(address(this));\n            uint256 initialSupply = totalSupply();\n            uint256 rewardBase = 10**18;\n\n            if (currentSupply <= initialSupply / 10) {\n                rewardBase = 10**17; // 1000 tokens\n            } \n            if (currentSupply <= initialSupply / 100) {\n                rewardBase = 10**16; // 100 tokens\n            }\n            if (currentSupply <= initialSupply / 1000) {\n                rewardBase = 10**15; // 10 tokens\n            } \n            if (currentSupply <= initialSupply / 10000) {\n                rewardBase = 10**14; // 1 token\n            }\n            if (currentSupply <= initialSupply / 100000) {\n                rewardBase = 10**13; // 0.1 tokens\n            }\n            if (currentSupply <= initialSupply / 1000000) {\n                rewardBase = 10**12; // 0.01 tokens\n            }\n            if (currentSupply <= initialSupply / 10000000) {\n                rewardBase = 5 * 10**11; // 0.005 tokens\n            }\n\n            rewardAmount = rewardBase;\n\n            require(balanceOf(address(this)) >= rewardAmount, \"Not enough tokens left for reward\");\n            _transfer(address(this), msg.sender, rewardAmount);  // Reward the transaction sender\n        }\n\n        return true;\n    }\n}\n",
  "sourcePath": "/Users/samthomson/code/tokenfactory/contracts/RewardToken.sol",
  "compiler": {
    "name": "solc",
    "version": "0.8.19+commit.7dd6d404.Emscripten.clang"
  },
  "schemaVersion": "3.4.13",
  "updatedAt": "2023-08-01T12:48:02.724Z",
  "networkType": "ethereum",
  "devdoc": {
    "events": {
      "Approval(address,address,uint256)": {
        "details": "Emitted when the allowance of a `spender` for an `owner` is set by a call to {approve}. `value` is the new allowance."
      },
      "Transfer(address,address,uint256)": {
        "details": "Emitted when `value` tokens are moved from one account (`from`) to another (`to`). Note that `value` may be zero."
      }
    },
    "kind": "dev",
    "methods": {
      "allowance(address,address)": {
        "details": "See {IERC20-allowance}."
      },
      "approve(address,uint256)": {
        "details": "See {IERC20-approve}. NOTE: If `amount` is the maximum `uint256`, the allowance is not updated on `transferFrom`. This is semantically equivalent to an infinite approval. Requirements: - `spender` cannot be the zero address."
      },
      "balanceOf(address)": {
        "details": "See {IERC20-balanceOf}."
      },
      "decimals()": {
        "details": "Returns the number of decimals used to get its user representation. For example, if `decimals` equals `2`, a balance of `505` tokens should be displayed to a user as `5.05` (`505 / 10 ** 2`). Tokens usually opt for a value of 18, imitating the relationship between Ether and Wei. This is the default value returned by this function, unless it's overridden. NOTE: This information is only used for _display_ purposes: it in no way affects any of the arithmetic of the contract, including {IERC20-balanceOf} and {IERC20-transfer}."
      },
      "decreaseAllowance(address,uint256)": {
        "details": "Atomically decreases the allowance granted to `spender` by the caller. This is an alternative to {approve} that can be used as a mitigation for problems described in {IERC20-approve}. Emits an {Approval} event indicating the updated allowance. Requirements: - `spender` cannot be the zero address. - `spender` must have allowance for the caller of at least `subtractedValue`."
      },
      "increaseAllowance(address,uint256)": {
        "details": "Atomically increases the allowance granted to `spender` by the caller. This is an alternative to {approve} that can be used as a mitigation for problems described in {IERC20-approve}. Emits an {Approval} event indicating the updated allowance. Requirements: - `spender` cannot be the zero address."
      },
      "name()": {
        "details": "Returns the name of the token."
      },
      "symbol()": {
        "details": "Returns the symbol of the token, usually a shorter version of the name."
      },
      "totalSupply()": {
        "details": "See {IERC20-totalSupply}."
      },
      "transferFrom(address,address,uint256)": {
        "details": "See {IERC20-transferFrom}. Emits an {Approval} event indicating the updated allowance. This is not required by the EIP. See the note at the beginning of {ERC20}. NOTE: Does not update the allowance if the current allowance is the maximum `uint256`. Requirements: - `from` and `to` cannot be the zero address. - `from` must have a balance of at least `amount`. - the caller must have allowance for ``from``'s tokens of at least `amount`."
      }
    },
    "version": 1
  },
  "userdoc": {
    "kind": "user",
    "methods": {},
    "version": 1
  }
}